:100000000C945E000C94EA060C94C3060C948600D3
:100010000C9486000C9486000C9486000C94860048
:100020000C9486000C9486000C9486000C94860038
:100030000C9486000C9486000C9486000C94860028
:100040000C9479060C9486000C9447060C942106B7
:100050000C9486000C9486000C9486000C94860008
:100060000C9486000C948600000000080002010039
:100070000003040700000000000000000000000072
:10008000250028002B0000000000240027002A0083
:10009000040404040404040402020202020203032E
:1000A0000303030301020408102040800102040836
:1000B00010200102040810201107430C11241FBE58
:1000C000CFEFD8E0DEBFCDBF25E0AAE3B3E001C0AB
:1000D0001D92A330B207E1F713E0A0E0B1E0EAE936
:1000E000FDE102C005900D92AA33B107D9F710E0E7
:1000F000CDE5D0E004C02197FE010E94C80CCC35AC
:10010000D107C9F70E945D080C94C00E0C94000042
:1001100090E0FC01EC55FF4F249180579F4FFC016C
:100120008491882399F090E0880F991FFC01EA5789
:10013000FF4FA591B491FC01E458FF4F8591949134
:100140008FB7F894EC91E22BEC938FBF089581E088
:10015000809344030895AF92BF92CF92DF92EF92C3
:10016000FF920F931F93CF93DF936C017B018B0161
:10017000040F151FEB015E01AE18BF08C017D107B1
:1001800059F06991D601ED91FC910190F081E02D3B
:10019000C6010995892B79F7C501DF91CF911F9190
:1001A0000F91FF90EF90DF90CF90BF90AF900895A8
:1001B000FC01448155816081718185EE93E00C944E
:1001C000AB00FC01538D448D252F30E0842F90E04F
:1001D000821B930B541710F0CF9608950197089542
:1001E000FC01918D828D981761F0A28DAE0FBF2F0B
:1001F000B11D5D968C91928D9F5F9F73928F90E061
:1002000008958FEF9FEF0895FC01918D828D9817CF
:1002100031F0828DE80FF11D858D90E008958FEF0C
:100220009FEF0895FC01918D228D892F90E0805CD5
:100230009F4F821B91098F739927089588E493E05B
:100240000E94120121E0892B09F420E0822F0895F9
:1002500080E090E0892B29F00E941E0181110C940E
:1002600000000895FC01A48DA80FB92FB11DA35A59
:10027000BF4F2C91848D90E001968F739927848FC6
:10028000A689B7892C93A089B1898C9183708064E9
:100290008C93938D848D981306C00288F389E02D8A
:1002A00080818F7D80830895EF92FF920F931F933B
:1002B000CF93DF93EC0181E0888F9B8D8C8D981319
:1002C0001AC0E889F989808185FF15C09FB7F89425
:1002D000EE89FF896083E889F98980818370806471
:1002E00080839FBF81E090E0DF91CF911F910F91BC
:1002F000FF90EF900895F62E0B8D10E00F5F1F4FCB
:100300000F731127E02E8C8D8E110CC00FB607FCD9
:10031000FACFE889F989808185FFF5CFCE010E9467
:100320003201F1CFEB8DEC0FFD2FF11DE35AFF4FA2
:10033000F0829FB7F8940B8FEA89FB8980818062F5
:10034000CFCFCF93DF93EC01888D8823B9F0AA89B2
:10035000BB89E889F9898C9185FD03C0808186FD80
:100360000DC00FB607FCF7CF8C9185FFF2CF8081CF
:1003700085FFEDCFCE010E943201E9CFDF91CF9111
:10038000089590E0FC01E859FF4F2491FC01EC55E1
:10039000FF4F3491FC01E057FF4FE491EE23C9F089
:1003A000222339F0233001F1A8F4213019F1223051
:1003B00029F1F0E0EE0FFF1FE458FF4FA591B49133
:1003C0008FB7F894EC91611126C030953E233C9391
:1003D0008FBF08952730A9F02830C9F0243049F79D
:1003E000809180008F7D03C0809180008F77809303
:1003F0008000DFCF84B58F7784BDDBCF84B58F7D60
:10040000FBCF8091B0008F778093B000D2CF8091E6
:10041000B0008F7DF9CF3E2BDACF806480937C00D3
:1004200080917A00806480937A0080917A0086FDC2
:10043000FCCF809178009091790008953FB7F894AF
:100440008091400390914103A0914203B0914303F6
:1004500026B5A89B05C02F3F19F00196A11DB11D1F
:100460003FBFBA2FA92F982F8827BC01CD01620F5B
:10047000711D811D911D42E0660F771F881F991F16
:100480004A95D1F708958F929F92AF92BF92CF92E3
:10049000DF92EF92FF924B015C010E941E026B0102
:1004A0007C010E941E026C197D098E099F09683E1D
:1004B000734081059105A8F321E0821A9108A108F3
:1004C000B10888EEC80E83E0D81EE11CF11C81142F
:1004D0009104A104B10429F7FF90EF90DF90CF9031
:1004E000BF90AF909F908F9008950895089590E0E9
:1004F00080E00895109246031092450381E090E059
:10050000909305018093040180933A031092440371
:1005100082E0809324010895CF93DF93EC0160E0A3
:100520008E810E94C10161E08E810E94C10160E064
:100530008E810E94C1018BE891E00197F1F7DF9174
:10054000CF910895CF92DF92EF92FF920F931F9376
:10055000CF93DF936C017C0187E0E80EF11CD0E0C3
:10056000C0E0062F10E0B8010C2E02C0759567950B
:100570000A94E2F76170F70181917F010E94C10145
:100580002196C430D10579F7C601DF91CF911F9133
:100590000F91FF90EF90DF90CF900C948C02CF9250
:1005A000DF92EF92FF920F931F93CF93DF93EC01B3
:1005B000F62E642F8C810E94C1018D818F3F19F02E
:1005C00060E00E94C1010F2D10E08F8584FF25C0DF
:1005D0006E0187E0C80ED11CF12CE12CB8010E2C65
:1005E00002C0759567950A94E2F76170F6018191F2
:1005F0006F010E94C101FFEFEF1AFF0A88E0E816C1
:10060000F10461F7CE01DF91CF911F910F91FF901F
:10061000EF90DF90CF900C948C02B80184E0759538
:1006200067958A95E1F7CE010E94A2026F2DCE0157
:10063000DF91CF911F910F91FF90EF90DF90CF90BE
:100640000C94A20240E0682F85EE93E00C94CF0258
:1006500081E00E9422038BE39FE10197F1F7089567
:10066000CF93DF93823029F49091F40398609093B4
:10067000F4038093F8031092F90380E48093FA0363
:1006800080E18093FB0380E58093FC038091E90384
:100690000E9488008091EA038F3F11F00E94880039
:1006A0008091EB030E948800C5EED3E09E01255E99
:1006B00033408091F40384FD0AC084E090E02196E9
:1006C000281739073CF48E810E948800EFCF88E01C
:1006D00090E0F5CF8BE39DE00197F1F760E080912A
:1006E000E9030E94C10160E08091EB030E94C10117
:1006F0008091EA038F3F19F060E00E94C101809170
:10070000F40384FD34C063E085EE93E00E94A2020E
:10071000CBE4D6E4CE010197F1F763E085EE93E0F8
:100720000E94A2022197F1F763E085EE93E00E9418
:10073000A20283E592E00197F1F762E085EE93E093
:100740000E94A2028091F40380620E94220384E04E
:100750008093F5038CE00E9422030E94280382E02C
:100760008093F60386E0DF91CF910C9422038062A0
:100770000E9422038BE496E40197F1F78091F40341
:1007800080620E94220383E592E00197F1F7809155
:10079000F40380620E942203D5CF9091F803691779
:1007A00010F06FEF690FE62FF0E0EB51FC4F9489EA
:1007B000890F80680C942203E5EEF3E08089982F7E
:1007C0009160908B89600C94220341E00E94CF02DB
:1007D00081E090E00895FB0101900020E9F7319756
:1007E000AF01461B570BDC01ED91FC910280F381B8
:1007F000E02D09948F929F92AF92BF92CF92DF9299
:10080000EF92FF920F931F93CF93DF93CDB7DEB795
:10081000A1970FB6F894DEBF0FBECDBF90914703EE
:10082000993009F4B8C090913A039111B4C0062FE1
:10083000182FC0904503D0904603E0900401F0903B
:10084000050184E00E940D024C0183E00E940D022C
:100850005C018091440319A2805D88A3BE01605EA3
:100860007F4F88E493E00E94EB0369E471E088E441
:1008700093E00E94EB032091450330914603013041
:1008800009F45EC08DECA816B1040CF050C02150E4
:1008900031093093460320934503809104019091E0
:1008A000050101972DEC8216910454F083E388161C
:1008B00083E098064CF08091040190910501019627
:1008C0009093050180930401809145039091460324
:1008D000C816D90609F048C080910401909105011D
:1008E000E816F90629F480914403882309F4A9CF76
:1008F000812F90E0013009F442C0C816D906B1F545
:100900001092460310924503A1960FB6F894DEBFED
:100910000FBECDBFDF91CF911F910F91FF90EF9050
:10092000DF90CF90BF90AF909F908F90089583E31A
:10093000A81683E0B8060CF4B0CF2F5F3F4FA9CFC5
:100940008DECA816B1043CF42F5F3F4F3093460363
:1009500020934503B9CF83E3A81683E0B8060CF4CF
:10096000B3CF21503109F2CF6C01C2CF0197CD2016
:10097000C09451F69093460380934503C5CF9C01E4
:100980002F5F3F4F2C153D0509F4BACFCD20C09401
:1009900009F0BACFEFCF10923A03B6CF0F931F935F
:1009A000CF93DF93EC0188819981009759F02A81D8
:1009B0003B812617370730F081E0DF91CF911F91FF
:1009C0000F9108958B016F5F7F4F0E94F30D009789
:1009D00059F0998388831B830A832C813D81232BC3
:1009E00059F7FC011082E8CF80E0E7CFCF93DF9387
:1009F000EC0188819981009711F00E946A0D19829B
:100A000018821D821C821B821A82DF91CF91089569
:100A10000F931F93CF93DF93EC010C811D810F5F28
:100A20001F4FB8010E94CE04882391F0288139819C
:100A30008C819D816CE471E0820F931F0E94B90E3E
:100A40001D830C83CE01DF91CF911F910F910895EB
:100A5000CE010E94F604F6CFEF92FF920F931F9300
:100A6000CF93DF93EC01FB01E080F180E114F1040E
:100A700011F10481158101151105A9F08C819D8169
:100A8000080F191FB801CE010E94CE04882399F0E7
:100A9000288139818C819D81B701820F931F0E942B
:100AA000B90E1D830C83CE01DF91CF911F910F9161
:100AB000FF90EF900895CE010E94F604F4CFEF92DC
:100AC000FF920F931F93CF93DF93EC017B018A0179
:100AD000BA010E94CE0481110BC0CE010E94F6041F
:100AE000CE01DF91CF911F910F91FF90EF9008956C
:100AF0001D830C83B701888199810E94B90EF0CFC4
:100B0000EF92FF920F931F93CF93DF93CDB7DEB792
:100B100029970FB6F894DEBF0FBECDBF8C01862F8C
:100B2000F8011182108213821282158214824AE027
:100B30009E012F5F3F4F7901B90190E00E94670C41
:100B4000F70101900020E9F73197AF014E195F09D5
:100B5000B701C8010E945F0529960FB6F894DEBF61
:100B60000FBECDBFDF91CF911F910F91FF90EF90FE
:100B70000895EF92FF920F931F93CF93DF93CDB71A
:100B8000DEB762970FB6F894DEBF0FBECDBF8C0103
:100B9000CB01F80111821082138212821582148215
:100BA0004AE09E012F5F3F4F7901B9010E945C0C22
:100BB000F70101900020E9F73197AF014E195F0965
:100BC000B701C8010E945F0562960FB6F894DEBFB8
:100BD0000FBECDBFDF91CF911F910F91FF90EF908E
:100BE0000895FB01DC0111961C921E9213961C9233
:100BF0001E92129715961C921E92149786179707AD
:100C000049F0608171816115710521F04481558140
:100C10000C945F050895FC011182108213821282E8
:100C200015821482FB0101900020E9F73197AF0192
:100C3000461B570B0C945F05FC01808191810C943D
:100C40006A0D1F920F920FB60F9211242F933F93AC
:100C50004F935F936F937F938F939F93AF93BF93C4
:100C6000EF93FF9388E493E00E943201FF91EF91AC
:100C7000BF91AF919F918F917F916F915F914F91B4
:100C80003F912F910F900FBE0F901F9018951F92BC
:100C90000F920FB60F9211242F938F939F93EF9380
:100CA000FF93E0915803F09159038081E0915E0336
:100CB000F0915F0382FD1BC09081809161038F5F83
:100CC0008F7320916203821741F0E0916103F0E09D
:100CD000E85BFC4F958F80936103FF91EF919F91AB
:100CE0008F912F910F900FBE0F901F9018958081BC
:100CF000F4CF1F920F920FB60F9211242F933F93B0
:100D00008F939F93AF93BF9380913C0390913D034A
:100D1000A0913E03B0913F0330913B0323E0230FAA
:100D20002D3758F50196A11DB11D20933B038093EB
:100D30003C0390933D03A0933E03B0933F03809107
:100D4000400390914103A0914203B0914303019667
:100D5000A11DB11D8093400390934103A0934203D2
:100D6000B0934303BF91AF919F918F913F912F918A
:100D70000F900FBE0F901F90189526E8230F029634
:100D8000A11DB11DD2CF1F920F920FB60F92112449
:100D90002F933F934F935F936F937F938F939F9383
:100DA000AF93BF93EF93FF93E0910201F0910301A2
:100DB0000995FF91EF91BF91AF919F918F917F9195
:100DC0006F915F914F913F912F910F900FBE0F90B8
:100DD0001F9018951F920F920FB60F9211242F9308
:100DE0003F934F935F936F937F938F939F93AF93B3
:100DF000BF93EF93FF93E0910001F09101010995FA
:100E0000FF91EF91BF91AF919F918F917F916F91E2
:100E10005F914F913F912F910F900FBE0F901F90B8
:100E20001895E8E4F3E01382128288EE93E0A0E0E4
:100E3000B0E084839583A683B7838FE291E09183AA
:100E4000808385EC90E09587848784EC90E0978799
:100E5000868780EC90E0918B808B81EC90E0938B87
:100E6000828B82EC90E0958B848B86EC90E0978B64
:100E7000868B118E128E138E148E6EE471E081EBD0
:100E800094E00E940B066EE571E087EB94E00E940F
:100E90000B066BE671E08DEB94E00E940B0668E7B1
:100EA00071E083EC94E00E940B0667E871E089EC46
:100EB00094E00E940B0662E971E08FEC94E00E94DE
:100EC0000B066FE971E085ED94E00E940B066CEA79
:100ED00071E08BED94E00E940B066CEB71E081EE0B
:100EE00094E00E940B0666EC71E087EE94E00E94AD
:100EF0000B0665ED71E08DEE94E00E940B0664EE4A
:100F000071E083EF94E00E940B066FEE71E089EFD1
:100F100094E00E940B066AEF71E08DEF93E00E946F
:100F20000B066AE072E083E094E00E940B0661E148
:100F300072E089E094E00E940B066CE172E08FE0C1
:100F400094E00E940B0666E272E085E194E00E9464
:100F50000B0660E372E08BE194E00E940B066EE307
:100F600072E081E294E00E940B0669E472E087E29D
:100F700094E00E940B0665E572E08DE294E00E9429
:100F80000B066AEE71E083E394E00E940B0662E6D2
:100F900072E089E394E00E940B066EE672E08FE354
:100FA00094E00E940B0668E772E085E494E00E94FA
:100FB0000B0665E872E08BE494E00E940B0661E9A1
:100FC00072E081E594E00E940B0667E972E087E534
:100FD00094E00E940B0662EA72E08DE594E00E94C4
:100FE0000B066EEA72E083E694E00E940B066AEB61
:100FF00072E089E694E00E940B0667EC72E08FE6EF
:1010000094E00E940B0662ED72E085E794E00E9496
:101010000B066FED72E08BE794E00E940B0668EE22
:1010200072E081E894E00E940B0663EF72E087E8CB
:1010300094E00E940B0661E073E08DE894E00E946A
:101040000B0669E073E083E994E00E940B0660E11F
:1010500073E089E994E00E940B0667E173E08FE991
:1010600094E00E940B066EE173E085EA94E00E9432
:101070000B0662E273E08BEA94E00E940B06E5EE59
:10108000F3E01382128281E491E09183808384E013
:1010900084838FEF858387E0868388E0878389E078
:1010A00080878AE081878BE0828713861486158685
:1010B0001686178681E00C943003CF93DF93CDB76B
:1010C000DEB72C970FB6F894DEBF0FBECDBF789475
:1010D00084B5826084BD84B5816084BD85B582603D
:1010E00085BD85B5816085BD80916E0081608093EE
:1010F0006E00109281008091810082608093810057
:101100008091810081608093810080918000816066
:10111000809380008091B10084608093B1008091C1
:10112000B00081608093B00080917A0084608093E9
:101130007A0080917A00826080937A0080917A00B0
:10114000816080937A0080917A00806880937A0031
:101150001092C100E0915803F091590382E080831E
:10116000E0915403F09155031082E0915603F09101
:1011700057038FEC808310926003E0915C03F09141
:101180005D0386E08083E0915A03F0915B038081E8
:1011900080618083E0915A03F0915B0380818860D5
:1011A0008083E0915A03F0915B03808180688083A3
:1011B000E0915A03F0915B0380818F7D808386E00C
:1011C0000E94880085E00E94880083E00E948800D9
:1011D00087EA90E09093010180930001809169007B
:1011E0008C7F826080936900E89A82E00E943003DD
:1011F0000E94280360E081E00E94CD0381EB94E02F
:101200000E94D80061E081E00E94CD0387EB94E06A
:101210000E94D80060E080E00E94CD030E94DC03C1
:1012200086E00E948800EEE6F0E0E491E33009F405
:1012300079C050F4E130E1F0E23009F46DC060E0D3
:1012400086E00E94C10119C0E73009F477C0E83098
:1012500009F47DC0E43099F780918000806280932A
:10126000800084E190E090938B0080938A0005C019
:1012700084B5806884BD84E187BD85E00E948800D4
:1012800060E085E00E94C10183E00E94880060E088
:1012900083E00E94C10116E020E0C22E20E0D22EA1
:1012A00001E0AA24A394B12C89E0582E93E0492EA2
:1012B000809147038111C2C060E08CE00E94FA0374
:1012C0006CE271E080E090E00E9443028091440370
:1012D000811146C00E94280360E081E00E94CD0396
:1012E0002091450330914603129FC001139F900D3A
:1012F00011248F549B4F0E94D80061E081E00E942E
:10130000CD0380914503909146038B30910509F000
:101310007DC081EB94E083C084B5806284BD84E1AC
:1013200088BDABCF8091800080688093800084E18D
:1013300090E090938900809388009FCF8091B000C7
:1013400080688093B00084E18093B30096CF809151
:10135000B00080628093B00084E18093B4008DCFB0
:101360008091440360E080E00E94CD0380914403BB
:10137000882309F463C080912401882309F45EC0A6
:10138000E0904503F0904603E114F10409F448C1EC
:101390000E94280360E081E00E94CD031E9DC001F1
:1013A0001F9D900D11248F549B4F0E94D80061E027
:1013B00080E00E94CD0367E273E085EE93E00E9437
:1013C000EB0361E08DE00E94CD030E94DC03B0924C
:1013D0000501A092040110924403809144038111FD
:1013E00023C060E08CE00E94FA038091040161E078
:1013F00080FD18C088E00E94CD030E94DC036CE2EF
:1014000071E080E090E00E944302E7CF0196189FD0
:101410009001199F300D1124C9018F549B4F0E94D8
:10142000D800A0CF8DE0E7CF8091040180FDF3C00C
:101430000093240140924703109244038091470394
:10144000813009F0A9C10E947A020E94280360E05D
:1014500081E00E94CD03E0904503F0904603F70140
:10146000EA5FFE4F6081CE0107960E948005BE01B3
:10147000695F7F4FCE0101960E94F105CE01019672
:101480000E9408051E9DB0011F9D700D1124635020
:101490007C4F0E942C050E94D800CE0101960E942C
:1014A0001C06CE0107960E941C0661E081E00E94A6
:1014B000CD03E0904503F09046032FEFE21AF20AC5
:1014C000F701EA5FFE4F6081CE0107960E9480051A
:1014D000BE01695F7F4FCE0101960E94F105CE01EA
:1014E00001960E9408051E9DB0011F9D700D1124DC
:1014F00063507C4F0E942C050E94D800CE010196BB
:101500000E941C06CE0107960E941C0660E080E047
:101510000E94CD03809144038111C6C060E08DE13B
:101520000E94FA036CE271E080E090E00E944302C6
:1015300080914403809144038111E8CF0E942803E5
:1015400060E081E00E94CD038091450390914603C5
:10155000FC01EA5FFE4F6081189F9001199F300DDA
:101560001124C90183509C4F7C01CE0101966A3041
:1015700008F059C00E948005BE016F5F7F4FCE0109
:1015800007960E94F105CE0107960E940805B70153
:101590000E942C050E94D800CE0107960E941C06CE
:1015A000CE0101960E941C0661E081E00E94CD03FD
:1015B00080914503909146038C31910509F44EC00A
:1015C0000196FC01EA5FFE4F6081189F9001199F10
:1015D000300D1124F901E350FC4F7F01CE0101963B
:1015E0006A3078F50E948005BE016F5F7F4FCE01A3
:1015F00007960E94F105CE0107960E940805B701E3
:101600000E942C050E94D800CE0107960E941C065D
:10161000CE01019679CF509247030E947A020ECFF5
:10162000009347030BCF0E948005B701CE010196BE
:101630000E942C050E94D800CE0101960E941C0633
:10164000B3CF0E948005BE016F5F7F4FCE0107962A
:101650000E94F105B701CE010796D2CF6091060135
:10166000809123018A3090F4CE0101960E9480057A
:10167000BE016F5F7F4FCE0107960E94F105CE013C
:1016800007960E9408056DEF73E0BACFCE01019670
:101690000E948005BE016F5F7F4FCE0107960E94BA
:1016A000F1056DEF73E0D7CF1092440380914703AB
:1016B000893009F471C0609045037090460361144D
:1016C000710409F466C093012A5F3E4F4901F90194
:1016D000808190E0909346038093450360E081E031
:1016E0000E94CD03169DC001179D900D11249C01F1
:1016F00023503C4F790180914403811143C061E044
:1017000084E10E94FA036CE271E080E090E00E94C4
:10171000430260E081E00E94CD0360914503709137
:101720004603CE0107966A307105F8F40E94B905A8
:10173000BE01695F7F4FCE0101960E94F105CE0187
:1017400001960E940805B7010E942C050E94D8004E
:10175000CE0101960E941C06CE0107960E941C062F
:1017600060E081E00E94CD03C6CF0E94B905BE01B2
:10177000695F7F4FCE0101960E94F105B701CE014E
:101780000196E2CF1092440380914503F4018083D7
:101790008DCF509247038ACF80914703833009F061
:1017A0005EC0F0902401F1E0FF1259C00E942803AE
:1017B0008091F5038E7F8093F50388600E94220359
:1017C00060E081E00E94CD03209145033091460303
:1017D000129FC001139F900D11248F549B4F0E94A4
:1017E000D80061E080E00E94CD0368E373E085EEFD
:1017F00093E00E94EB0380912401813081F561E048
:101800008F2D0E94CD0368E373E085EE93E00E9484
:10181000EB0360E971E080E090E00E94430220E188
:101820002F1510F0F394E7CF0E94280360E081E0C9
:101830000E94CD032091450330914603129FC001C1
:10184000139F900D11248F549B4F0E94D80064E683
:1018500070E080E090E00E944302F12CCCCF8091B8
:101860004703893021F40E947A0210924703C11481
:10187000D10409F41DCD0E941E01882309F414CD62
:101880000E94000011CDCF93DF93C1EBD4E02697E7
:10189000CE010E941C0683E0CD3FD807C1F7CFEFF1
:1018A000D4E02697CE010E941C0684E0C13BD807F5
:1018B000C1F7DF91CF910895BB274A3031F49923C6
:1018C00022F4BDE2909581959F4F0C94680CBB2744
:1018D000FB015527AA27880F991FAA1FA41710F0EC
:1018E000A41B83955051B9F7A05DAA3308F0A95DF8
:1018F000A193009779F7B111B1931192CB010C9498
:10190000810CDC01FC01672F71917723E1F732979D
:1019100004C07C916D9370836291AE17BF07C8F3CA
:1019200008952F923F924F925F926F927F928F9283
:101930009F92AF92BF92CF92DF92EF92FF920F935E
:101940001F93CF93DF93CDB7DEB7CA1BDB0B0FB668
:10195000F894DEBF0FBECDBF09942A883988488825
:101960005F846E847D848C849B84AA84B984C884BB
:10197000DF80EE80FD800C811B81AA81B981CE0FB2
:10198000D11D0FB6F894DEBF0FBECDBFED01089597
:10199000EE0FFF1F0590F491E02D09940F931F9314
:1019A000CF93DF938230910510F482E090E0E091D4
:1019B0000105F091020530E020E0B0E0A0E03097B2
:1019C00099F42115310509F44AC0281B390B24303C
:1019D0003105D8F58A819B816115710589F1FB017B
:1019E00093838283FE0111C0408151810281138162
:1019F00048175907E0F04817590799F4109761F014
:101A000012960C93129713961C933296CF01DF9186
:101A1000CF911F910F910895009301051093020536
:101A2000F4CF2115310551F04217530738F0A901C1
:101A3000DB019A01BD01DF01F801C1CFEF01F9CF50
:101A40009093020580930105CDCFFE01E20FF31FB5
:101A5000819391932250310939832883D7CF2091E4
:101A6000FF0430910005232B41F420912701309190
:101A70002801309300052093FF0420912501309127
:101A800026012115310541F42DB73EB740912901BA
:101A900050912A01241B350BE091FF04F0910005C1
:101AA000E217F307A0F42E1B3F0B2817390778F035
:101AB000AC014E5F5F4F2417350748F04E0F5F1F94
:101AC000509300054093FF04819391939FCFF0E0E2
:101AD000E0E09CCFCF93DF930097E9F0FC013297D1
:101AE00013821282A0910105B0910205ED0130E050
:101AF00020E01097A1F420813181820F931F209163
:101B0000FF04309100052817390709F061C0F093F0
:101B10000005E093FF04DF91CF910895EA01CE170D
:101B2000DF07E8F54A815B819E0141155105B1F758
:101B3000E901FB83EA8349915991C40FD51FEC1742
:101B4000FD0761F4808191810296840F951FE90160
:101B500099838883828193819B838A83F0E0E0E08C
:101B600012968D919C9113970097B9F52D913C9108
:101B70001197CD010296820F931F2091FF0430919F
:101B800000052817390739F6309751F510920205EC
:101B900010920105B0930005A093FF04BCCFD3833E
:101BA000C28340815181840F951FC817D90761F402
:101BB0004E5F5F4F88819981480F591F5183408341
:101BC0008A819B81938382832115310509F0B0CFEF
:101BD000F0930205E09301059ECFFD01DC01C0CF2B
:101BE00013821282D7CFB0E0A0E0E9EFFDE00C94C1
:101BF000930C8C01009751F4CB010E94CE0C8C0108
:101C0000C801CDB7DEB7E0E10C94AF0CFC01E60FE4
:101C1000F71F9C0122503109E217F30708F49DC019
:101C2000D901CD91DC911197C617D70798F0C5302F
:101C3000D10530F3CE0104978617970708F3C61B2A
:101C4000D70B2297C193D1936D937C93CF010E94C0
:101C50006A0DD6CF5B01AC1ABD0A4C018C0E9D1EDD
:101C6000A0910105B0910205512C412CF12CE12CE1
:101C7000109731F58091FF04909100058815990522
:101C800009F05CC04616570608F058C0809125013F
:101C900090912601009741F48DB79EB7409129019C
:101CA00050912A01841B950BE817F90708F055C0DD
:101CB000F0930005E093FF04F90171836083A0CFE6
:101CC0008D919C91119712966C90129713967C901F
:101CD0001397A815B90559F56C0142E0C40ED11C43
:101CE000CA14DB0420F1AC014A195B09DA0112962F
:101CF000159780F06282738251834083D9016D937E
:101D00007C93E114F10471F0D7011396FC93EE93E8
:101D1000129776CF22968C0F9D1FF90191838083B5
:101D2000F301EFCFF0930205E093010569CF481668
:101D3000590608F42C017D01D3019ACFCB010E94F2
:101D4000CE0C7C01009749F0AE01B8010E94B00EA4
:101D5000C8010E946A0D870153CF10E000E050CF08
:101D6000FB01DC0102C001900D9241505040D8F7B8
:101D70000895FB01DC0101900D920020E1F7089528
:101D800010E0CDE5D0E004C0FE010E94C80C219611
:0A1D9000CE35D107C9F7F894FFCF54
:101D9A007502750201000001020304050607080026
:101DAA00090A0B0C0D000E000F00000010111200A2
:101DBA000013140002000003058000000000005414
:101DCA0001AB00E100A1011201F0000401000000D2
:101DDA0000E503AB00770276020D0A0020005F459A
:101DEA00696E7374656C6C756E67656E5F003043FF
:101DFA006F6F6C204272657A7A650030436865724B
:101E0A00727920426F6D620030476F6C64656E2094
:101E1A0047696E676572003053742E204B6974747B
:101E2A0073003050696E6120436F6C6164610021F8
:101E3A0050696E6120436F6C61646100304D657852
:101E4A006963616E206F6E2049636500214D657874
:101E5A0069636F7265002154657175696C612054FC
:101E6A006F6E69630021576869736B792047696EE1
:101E7A0067657200214A61636B20436F6C610021C0
:101E8A0047696E20546F6E6963005F5F5F5F7265BA
:101E9A007475726E5F5F5F5F5F005761737365721F
:101EAA00004F72616E67656E5F536600416E616EC8
:101EBA0061735F5366004B69727363685F536600B0
:101ECA00477261706566727569745F536600476927
:101EDA006E67657220416C6500546F6E69632057A6
:101EEA006174657200426974746572204C656D6F25
:101EFA006E004C696F6E20456E65726779004B699A
:101F0A00727363685F4E65004372616E62657272D6
:101F1A00795F4E65004D61726163756A615F4E65F6
:101F2A00005361686E65004B6F6B75736D696C6306
:101F3A0068004C696D657474656E5F5366005A6912
:101F4A0074726F6E656E5F5366004772656E616488
:101F5A00696E655F536900457264626565725F53B5
:101F6A006900486173656C6E7573735F5369004BE2
:101F7A006F6B6F735F53690056616E696C6C655F56
:101F8A00536900426C2E4375726163616F5F5369D6
:101F9A000054657175696C6100576869736B7900E3
:101FAA00417065726F6C004D616C696275004769BA
:101FBA006E0050697475004D6978656E3F20202067
:0A1FCA0059455320204E4F002E0011
:00000001FF
